S02100004535345F5553425F434F4D504F534954455F4558414D504C452E737265638F
S113000020070120E9020000E5020000E5020000EB
S1130010E5020000E5020000E50200000000000027
S1130020000000000000000000000000E5020000E5
S1130030E502000000000000E5020000E502000007
S1130040E5020000E5020000E5020000E502000010
S1130050E5020000E5020000E5020000E502000000
S1130060E5020000E5020000E5020000E5020000F0
S1130070E5020000E5020000E5020000E5020000E0
S1130080E5020000E5020000E5020000E5020000D0
S1130090E5020000E5020000E5020000E5020000C0
S11300A0E5020000E5020000E5020000E5020000B0
S11300B0E5020000E5020000E5020000E5020000A0
S11300C0E5020000E5020000E5020000E502000090
S11300D0E5020000E5020000E5020000E502000080
S11300E0E5020000E502000000000000000000003E
S11300F000000000E10C0000E5020000E502000041
S1130100E5020000E5020000E5020000E50200004F
S1130110E5020000E5020000E5020000E50200003F
S1130120E5020000E5020000E5020000E50200002F
S1130130E5020000E5020000E5020000E50200001F
S1130140E5020000E5020000E5020000E50200000F
S1130150E5020000E5020000E5020000E5020000FF
S1130160E5020000E5020000E5020000E5020000EF
S1130170E5020000E5020000E5020000E5020000DF
S1130180C11F0000CD1F0000D91F0000E51F0000A3
S1130190E5020000E5020000E5020000E5020000BF
S11301A0E5020000E5020000E5020000E5020000AF
S11301B0E5020000E5020000E5020000E50200009F
S11301C0E5020000E5020000E5020000E50200008F
S11301D0E5020000E5020000E5020000E50200007F
S11301E0E5020000E5020000E5020000E50200006F
S11301F0E5020000E5020000E5020000E50200005F
S1130200E5020000E5020000E5020000E50200004E
S1130210E5020000E5020000E5020000E50200003E
S1130220E5020000E5020000E5020000E50200002E
S1130230E5020000E5020000E5020000E50200001E
S1130240E5020000E5020000E5020000E50200000E
S1130250E5020000E5020000E5020000E5020000FE
S1130260E502000010B5054C237833B9044B13B1F3
S11302700448AFF300800123237010BDC4000020A4
S113028000000000E83300000C4B43B10C480D495A
S113029010B5AFF300800C48036823B910BD0A48B9
S11302A0036833B97047094B002BF7D0BDE8104001
S11302B01847064B002BF5D0184700BF000000007C
S11302C0E8330000C8000020E8330000000000000C
S11302D008B5024B9847024B984708BD49040000F3
S11302E05D320000FEE7000008B51C4B1C4A9A4230
S11302F010D01C4B194A9A420CD2013B9B1A23F092
S1130300030304331344164951F8040B42F8040B55
S11303109A42F9D1144B154A9A420AD2013B9B1ACC
S113032023F0030304331344002142F8041B9342D3
S1130330FBD10F4B0F4A22F07F029A60D3F888203A
S113034042F47002C3F88820BFF34F8FBFF36F8F5E
S1130350094B9847094B9847FEE700BF000000206F
S1130360E8330000C40000201C070020C400002063
S113037000ED00E0000000006932000029300000B8
S11303801E4B4FF080729A604FF0804199621C4876
S113039098625A6193F8582002F0FB0283F85820BF
S11303A093F8582002F0FE0242F0010283F858202C
S11303B093F83C2002F0F00242F0070283F83C205C
S11303C04FF000729A6099620E4999625A6193F8EB
S11303D0592002F0FB0283F8592093F8592002F0C7
S11303E0FE0242F0010283F8592093F83C2002F007
S11303F00F0242F0700283F83C20704700800041F5
S1130400000100C0000200C04122074BC3F8A8202D
S1130410A3F5A0531A6942F480621A619A6942F002
S113042001029A61704700BF001C004008B5034BED
S11304309847034B9847034B984708BD09040000AD
S1130440650700008103000010B5244B9847244B36
S113045008225A6023499962234999625A6093F8A1
S1130460430040F0040083F843009A6193F843206A
S113047002F0FE0283F843200122C3F884201B4CBF
S1130480C3F8A840C3F8A810C3F8842093F8C000A8
S113049040F0040083F8C000C3F8982093F8C0002B
S11304A000F0FE0083F8C000C3F88421C3F8A8411B
S11304B0C3F8A811C3F8842193F8C01141F00401D2
S11304C083F8C011C3F8982193F8C02102F0FE020A
S11304D083F8C021064B984710BD00BF190B0000DC
S11304E00080004108000240000002C001000240F8
S11304F02D040000EFF31083036072B6BFF35F8F27
S11305007047BFF35F8F036883F310887047000060
S11305100F4B5978884218D030B41A46002300F0A3
S11305200F0507E001335BB20D2B09D0203251785F
S1130530814207D01478002CF4D18D42F2D101E02D
S11305404FF0FF33184630BC7047002318467047FD
S1130550E00000200020704738B504460D46094BE2
S11305609847094B03EB40139B78032B01D00020E1
S113057038BD054B03EB4010836929462046984754
S113058038BD00BF11050000E0000020F0B585B0C3
S113059006460D4617464D4B98470446002D5BD141
S11305A04B4A4301D1180020C870D35C73B1484B47
S11305B003EB441301229A70454800EB4410C369CD
S11305C03A46C1783046984705B0F0BD8B78032B86
S11305D00BD03F4800EB44121446D3690C3200217F
S11305E0607898470223A370EEE70B4691F90C500C
S11305F00A46CE690C3201215878B047A0B1344B79
S113060003EB441305229A700222DA70002D09DBF1
S11306102F4800EB4410407840F0800001212D4B1E
S11306209847D1E75878F9E7294800EB44100423A8
S1130630837043780022019202929542ACBF43F04A
S1130640800303F00F038DF80C3001238DF80D3077
S113065001A8214B9847B7E7012D0AD0022D1CD0E1
S1130660032D2AD01A4B03EB401306229A70DA703A
S1130670A2E7174A4301D1180220C870D35C2BB1FA
S1130680134B03EB441305229A7095E70B469870BD
S1130690002130460F4B98478EE70D4A4301D1188D
S11306A00420C870D35C2BB1094B03EB4413012223
S11306B09A7081E702238B7086E7054B03EB4013A6
S11306C000229A700522DA7076E700BF1105000057
S11306D0E0000020DD1B0000851D00002DE9F04135
S11306E005461C4B984706461B4C04EB40140C343F
S11306F021462846194B9847C0B2082809D0012141
S11307002846174CA047012145F08000A047BDE8CA
S1130710F08100212846124FB84745F08008002197
S11307204046B8470C4B03EB461301229A705B69B1
S113073021462846984708B1BDE8F081064B03EBF3
S113074046160523B37001212846B84701214046C7
S1130750B847F1E711050000E0000020251D000066
S1130760DD1B000010B5114B984700281DDB104C11
S11307704FF4D072002120460E4B9847234604F5CF
S1130780D070FF210C4A59705A619A61DA612033A2
S11307908342F8D109490020094CA04709490120A6
S11307A0A04709490220A047002010BDB51500004C
S11307B0E0000020C732000055050000DD060000FF
S11307C08D1F0000590500008D05000008B5014B80
S11307D0984708BD651F000008B5014B984708BD40
S11307E0BD16000008B5014B984708BD2917000045
S11307F008B5014B984708BD3B170000F8B50646FD
S11308000C4617460F4B9847002814DAFF200D4B6F
S11308109847051E12DB3A46214630460A4B984754
S113082000280DDB094B68011A18567004F0030404
S11308301C540020F8BD6FF01300F8BD6FF01400D5
S1130840F8BD00BF1105000049170000E0000020BA
S113085008B5024600210846014B984708BD00BF71
S1130860FD07000038B50546064B9847041E07DB14
S11308702846054B9847054800EB4410FF23437076
S113088038BD00BF1105000061180000E000002021
S113089038B505460E4B9847041E16DB63010D4A16
S11308A0D35C002B0CBF022201220A4B03EB44133E
S11308B09A702846084B9847002800DB38BD054B42
S11308C003EB44140023A37038BD6FF01100F5E767
S11308D011050000E0000020251900002DE9F04773
S11308E086B00446077A38463F4B9847657AD4F871
S11308F00480061E72DB04A83C4B98473C4B03EB78
S113090046139B788DF817309DF81730DBB2012B16
S113091011D004A8374B98479DF81730DBB2052B4C
S11309205FD0062B23D0002B0CBF6FF012000120E8
S113093006B0BDE8F087DFF8B8A04FEA46190AEB25
S1130940090303229A7004A82A4B98471AF809301D
S113095083B1227A003518BF012523680193CDF8AD
S1130960088017F0800F19D102F00F0318E06FF020
S11309700F00DDE71E4B03EB4613DA7C9D7C05EB91
S11309800225ADB2A5B91A4B03EB46160423B37086
S113099000230125227A21680191029342F0800309
S11309A08DF80C308DF80D5001A8134B9847BFE714
S11309B04346A84528BF2B460D4A02EB461696F936
S11309C00C20002A05DB227A21680191029300257C
S11309D0CAE79D4294BF00250125DBE76FF01100B3
S11309E0A6E70220A4E700BF11050000F5040000FB
S11309F0E000002003050000851D000038B5044612
S1130A0041B101290CBF01210221134B9847034630
S1130A10184638BD114B9847051E19DB02212046A4
S1130A200D4B984703460028F2D0002120460A4B7C
S1130A309847031EECDB0A4B03EB451301229A7023
S1130A400321D970DB690022204698470023DFE7A1
S1130A506FF01103DCE700BFDD1B0000110500008F
S1130A60E000002038B50D4614460E4B98470E4B57
S1130A70002C08BF1C46002813DB012D08D015B13B
S1130A80022D0AD038BD094B03EB4010446138BD38
S1130A90064B03EB4010846138BD044B03EB40105C
S1130AA0C46138BD1105000055050000E0000020B8
S1130AB000B900BE704703684BB18B4209D01B6874
S1130AC01BB19942FBD101207047002070470020E0
S1130AD0704701207047000070B505460E46046853
S1130AE00A4B984780F001004F220949C0B2094BD4
S1130AF098472B681BB92E60336070BD1C46236871
S1130B00002BFBD12660336070BD00BFB70A000024
S1130B10D8320000B10A000008B5084A13889BB215
S1130B201380074B9847074B9847074B9847074B49
S1130B30984740F6FF70064B984708BD00400041B7
S1130B40BD0B0000DD0B0000B10B0000F90B000031
S1130B50550B000010F0010F08D0114A114B1A6216
S1130B60194643F6FD724B681342FCD110F0020F94
S1130B7008D00D4A0B4B5A62194643F6FD724B6876
S1130B801342FCD110F0080F08D0084A054BDA6272
S1130B90194643F6FD724B681342FCD1704700BFFF
S1130BA001010100001C00400601010005010100D3
S1130BB00122014B5A71704700080040064B42F273
S1130BC08E029A8200229A75DA75D96901F47C51F1
S1130BD0D9611A74704700BF00140040044A054BE1
S1130BE09A611A46136913F0020FFBD0704700BFD5
S1130BF00626000300100040364A136A23F00F0350
S1130C0043F004031362114643F6FD724B6813422A
S1130C10FCD1304A536813F0040FFBD12E4B002251
S1130C201A772E4A9A621A4692F82C3013F0100F53
S1130C30FAD10022284B83F820201A4692F82C304F
S1130C4013F0040FFAD10222234B1A771A4692F8B2
S1130C502C3013F0020FFAD11F4B5A6A5A621A460B
S1130C6092F82C3013F0080FFAD119221A4B83F89A
S1130C7020201A4692F82C3013F0040FFAD1164BA8
S1130C8093F8203013F0010F1DD0134A136903F4B5
S1130C901063B3F5106FF9D10E4A5368002BFCD1E1
S1130CA00C4A136A23F00F0343F001031362114645
S1130CB043F6FD724B681342FCD1064A536813F0A5
S1130CC0040FFBD17047044A136913F4807FFBD0EF
S1130CD0E2E700BF001C00400010004080BB01049C
S1130CE000B583B00D4B9B78DBB20193019B13F0ED
S1130CF0020F06D00A4B1B681BB1084A506898477C
S1130D0009E0019B13F0010F05D0054B5B6813B19B
S1130D10024A5068984703B05DF804FB00000241A2
S1130D200C0700200020704738B5837C03F00F03C4
S1130D30C27C02F0070101290BD05A0102F1824260
S1130D40102182F807115B0103F1824383F8081133
S1130D5038BD12F0400F0CD0C27C6FF38612C274FF
S1130D605A0102F18242802182F80411402182F862
S1130D700511C27C6FF3C302C2740A495A018C186C
S1130D800025A572A57602F182436F2483F80741FA
S1130D9002F1824282F80841D1F8C830807C984739
S1130DA038BD00BF8002002008B5202303FA01F1FA
S1130DB0C9B2837C03F00F035B0103F1824383F820
S1130DC00811044BD3F8D03082680121807C984705
S1130DD008BD00BF8002002038B5847CFF2C03D0FE
S1130DE0C37C13F0400F00D138BDC27C6FF3861270
S1130DF0C274034AD2F8D05082682046A847F3E769
S1130E008002002030B583B0837C25248DF8044013
S1130E104A248DF80540FF2B1ED0C47C14F0400FEB
S1130E201AD003F00F04C9B1630103F18243802592
S1130E3083F804510B4602A90B4413F8041C630104
S1130E4003F1824383F80711630103F1824383F8BA
S1130E5008111146054B984703B030BD630103F1F7
S1130E608243402583F80551E4E700BFD90D000013
S1130E7030B583B0837C03F00F0304228DF8042083
S1130E8008228DF805205A010C4691B302F18241E3
S1130E9091F80051C5F3021502EB0411324A0A44D9
S1130EA0917AC9B2022D2CD011F0020F45D0C57C25
S1130EB0917A6FF34101917202AA224412F8041C40
S1130EC05A0102F1824282F807115B0103F1824365
S1130ED083F8081105F00703012B43D1C37C13F0F9
S1130EE0400F3FD0D9098C423CD000221F4B984779
S1130EF038E0590101F1824191F8005105F00705EC
S1130F00CAE711F0010FCFD0917A6FF3000191720B
S1130F1002AA224412F8041C5A0102F1824282F805
S1130F2007115B0103F1824383F808110422211C99
S1130F3018BF01210D4B984714E004EB43010A4A02
S1130F4002EB01120021917202AA144414F8041C49
S1130F505A0102F1824282F807115B0103F18243D4
S1130F6083F8081103B030BD80020020050E000094
S1130F702DE9F0410C4D05F1D40405F53C754FF015
S1130F8003080A4FFF2641462046B847A6740023AB
S1130F90E3741434AC42F6D1C02219460248044B1F
S1130FA09847BDE8F08100BF80020020D90D000001
S1130FB0C73200002DE9F0410546847C04F00F049B
S1130FC08846002900F0A080584B03EB441358696D
S1130FD0C0F30D0E2B8A40F2FF32934200F08E8054
S1130FE0013B98B2EF7C07F00707B8F1000F05D07A
S1130FF0620102F18242022382F80731A9680EEBF2
S11310000103AB606E68B3423FD2F61AB6B2EA7C13
S113101012F0200F2DD02A8A964228BF164629683E
S113102032461944E868424B9847EA683F4B03EB61
S113103044131A613D4B03EB44135A6966F30D02E2
S11310405A615A696FF39B325A61B8F1000F08D1A3
S1131050012F0CBF4E224A22630103F1824383F81D
S11310600921640104F18244802384F80531BDE838
S1131070F081B6F5005F28BF4FF4005629680B4491
S11310802A4A02EB44121361D4E7EB7C13F0100FED
S11310900FD0EB7C6FF30413EB74244B03EB44137A
S11310A05A696FF30D025A615A696FF39B325A61A0
S11310B0CBE7012F4FEA441404F182440CBF4B23C5
S11310C04A2384F808312A8A00EA0E039A4205D09A
S11310D000212846174B9847BDE8F081EB7C6FF35D
S11310E08613EB74114BD3F8CC30A968A87C9847CD
S11310F0D0B9EB7C43F04003EB74E9E7EF7C07F0F5
S1131100070740F2FF3073E7038A40F2FF3293424D
S113111007D1EF7C07F007074FF0000E40F2FF30D5
S11311206CE74FF0000E5BE7BDE8F0818002002021
S1131130B1320000D90D00002DE9F84F0446857C3A
S113114005F00F058946002956D0744B03EB45136F
S11311505A68C2F38D3A5F68C7F30D07BB46068A27
S113116040F2FF339E4200F0BA80013EB6B206EA76
S11311700B0794F8138008F00708B9F1000F05D0A5
S11311806B0103F18243012283F80721E37C13F00E
S1131190200F0DD06268002A37D0A068121A92B2CC
S11311A02368BA4228BF3A46E16818445C4B984722
S11311B0636853B3B9F1000F40D0228ABA423DD9D3
S11311C0E37C6FF30413E374A3685B44A360B8F196
S11311D0010F4FEA451303F182430CBF2D22252250
S11311E083F8082115B9E2684C4B1A6000212046A7
S11311F04C4B9847BDE8F88F068A40F2FF339E4275
S11312007BD04FF0000BDA46AFE7E37C13F0100F0E
S11312106CD0E37C03F0EF0343F02003E374E06855
S11312203E496A018B188850218A5A6861F39B32BF
S11312305A605A686FF30D025A601DE0A268524466
S1131240A2609342C3D99B1A9BB2E17C11F0200F98
S113125026D0228A934228BF1346E0686A012F49A8
S113126088502E4A02EB4512516863F39B3151605A
S113127053686FF30D035360B9F1000F08D1B8F14F
S1131280010F25D025226B0103F1824383F8092144
S11312906D0105F18245402385F80431BDE8F88FDE
S11312A0218A8B420AD9B3F5005F0ED823EA0603DC
S11312B021680A44690119484250D2E78B42F7D2A7
S11312C0E17C41F02001E174F2E74FF40053EFE7D1
S11312D0124B03EB451300229A762D22D3E7C7F372
S11312E0090790F8138008F0070849E7B9F1000FDF
S11312F00BD1A3685344A36069E790F8138008F006
S113130007080027BB46BA4640E7238ABB423FF69C
S113131057AFA3685344A36059E700BF800200207D
S1131320B1320000D90D00002DE9F8434FF082439B
S11313301E8CB6B246B1964D0024A5F1D407DFF851
S11313406C92DFF86C82DEE09A8B1B8B9BB21340AD
S113135013F0040F1ED113F4007F25D113F0800F76
S11313604FD113F0700F58D113F0080F78D113F048
S1131370010FE0D04FF0824340F201229A839A8217
S113138070221A83834BD3F8C43000210420984779
S1131390BDE8F88304224FF082439A837D4BD3F84F
S11313A0C0309847BDE8F8834FF0824340F20122F1
S11313B09A839A8270221A83764B1B8903F00F0357
S11313C0032B14D001237348194600EB43121289EE
S11313D002F00F02032A0BD00133052BF4D10021B4
S11313E06C4BD3F8C43003209847BDE8F883002140
S11313F0684B03EB41131989C1F30A1100221A81C6
S1131400EEE780224FF082439A83624BD3F8C430D4
S1131410002105209847BDE8F8834FF082437022ED
S11314209A839A8240F201221A835B4B93F820300C
S113143013F0010F0ED0584A136903F41063B3F587
S1131440106FF9D1534BD3F8C430002102209847D0
S1131450BDE8F883504A136913F4807FFBD0F1E7A9
S11314604FF08243002483F8004108229A837022BB
S11314709A8240F201221A83484B9847454BD3F88D
S1131480C430214601209847BDE8F88311F0100FBD
S113149009D111F0400F08D111F0200F2FD00021F5
S11314A03F4B98472BE0C84729E001213C4B984724
S11314B025E011F0400F11D111F0080F12D111F0F5
S11314C0020F12D103F00703012B18D111F0040FFE
S11314D00FD111F0100F12D0C84710E00121304B8A
S11314E098470CE00121C04709E001212D4B9847A2
S11314F005E00021C04702E00021294B9847013450
S113150014351B2C42D02846AB7CFF2BF7D003F0BC
S11315100F03012199403142F1D0590101F1824177
S113152001F58071C9795B0103F1824393F80931B4
S11315301940E4D004EB840207EB820292F8E7300E
S113154003F04702012AA1D013F0800FB1D111F0AA
S1131550200FD1D111F0040F0ED111F0010F0ED1D3
S113156003F00703012BCAD111F0080F0BD111F0BE
S1131570100FC4D0C847C2E70021C047BFE701210C
S1131580094B9847BBE70121C047B8E7BDE8F8839A
S1131590540300208002002000100040710F00005E
S11315A0A90D0000B50F000039110000290D00003D
S11315B0710E000008B54FF082439B7813F0010FC1
S11315C024D14FF08242937813F0030FFBD14FF0F4
S11315D082431B7813F0020F0FD04FF0824213782E
S11315E003F0FD031370937813F0030FFBD14FF056
S11315F08242937813F0020FFBD101224FF0824311
S11316001A701A46937813F0030FFBD14FF08242FD
S1131610937813F0010FFBD1244B254AC3F8C02063
S1131620C3F8C420C3F8C820C3F8CC20C3F8D02022
S1131630204B9847204B1968C1F34413C1F382220D
S113164011F01F012BD01F2908BF09214BB31F2BF9
S113165008BF19233AB3072A08BF062203F01F0361
S113166043EA8113120302F4E04213434FF082422F
S11316701385D37843F00303D370D37843F00C037A
S1131680D37004231370937813F0030FFBD14FF03E
S11316908243064A5A6201221A81002008BD0921A8
S11316A0D4E71923D6E70622D8E700BF800200203A
S11316B0250D0000710F0000840080004FF082436C
S11316C09B7813F0030F29D14FF08242937813F0E3
S11316D0030FFBD14FF082431B78DBB213F0020FF0
S11316E008D143F002034FF082421370937813F051
S11316F0030FFBD10B4B4FF480329A604FF400324E
S11317009A604FF480229A604FF400229A6040F26B
S11317108D224FF082431A83002070476FF010002F
S1131720704700BF00E100E04FF08242138923F0CC
S113173001031B041B0C1381704740F080004FF021
S11317408243987270470000F0B54FFA80FE10F0A3
S11317500F054DD0BEF1000FB4BF6C1D2C4601F037
S113176003012B46052D47D96FF01100F0BDBEF1E2
S1131770000F1BDB03EB4305374E56F82550002DB5
S11317805ED103EB4303344D55F82370334DA6006B
S1131790331905EB8303C3F8E070A3F8E4200131A7
S11317A083F8E71083F8E6000020F0BD03EB43055F
S11317B0294E06EB85056D6835B903EB4303264DC9
S11317C005EB83035F68E1E703EB4305224E06EB79
S11317D085056D899542F0DA6FF01200F0BD6FF067
S11317E01300F0BD6FF01300F0BD6FF01200F0BDF8
S11317F001F003010024234604EB8406174F07EB92
S1131800860696F8E660FF2EE9D10029AFD125B10E
S1131810BEF1000FA4BF0535EDB205EB85050F4EF3
S113182006EB850595F8E650FF2DDBD103EB430568
S1131830094E56F82550002DD7D0BEF1000FB5DB68
S113184003EB4305044E06EB85052D89954298DA92
S11318506FF01200F0BD00BFF832000080020020DB
S1131860F8B547B210F00F060ED0002FB4BF731DA9
S11318703346052E00D9F8BD1D46013303EB83031F
S1131880244A02EB830E02E0DFF894E0002505EB26
S11318908503214A02EB830393F8E620FF2AEAD06A
S11318A004460322F90F70461C4B984705EB850349
S11318B0194A02EB830393F8E73003F00703012B83
S11318C016D0002F1BDB600100F1824090F800313C
S11318D003F0F80380F800310F4BAA00511903EB11
S11318E08101002081F8E700FF2281F8E620C2E7A9
S11318F0600100F18240002380F80031ECE77601BA
S113190006F1824696F8003103F08F0386F8003121
S1131910E2E700BF4003002080020020050E000023
S113192054030020F0B446B210F00F0000F0A7807A
S1131930002EB4BF431D03460546420102F1824214
S113194092F80041E4B2052840F2A0806FF0110043
S11319507DE014F0770F40F0898002F1824211217A
S113196082F800119B4C04EB8701B1F8E4109A4C07
S113197004EA8134B1F5007F00F2CD80B1F5807FB7
S113198000F21281802900F20181402900F21381C2
S1131990202900F20281102900F21481082994BF41
S11319A00026012644EA06744460C1F30D01B8E040
S11319B014F0700F5DD1874E9F00F91806EB81017A
S11319C091F8E710090101F070010C4302F1824221
S11319D082F800413B4406EB8306B6F8E430C3F3D7
S11319E00D01B3F5007F0FD8B3F5807F19D8802B94
S11319F019D8402B19D8202B19D8102B19D8082BFB
S1131A0094BF0023012300E0072341EA03734361E9
S1131A10802382F804316F4B03EB45150020A87630
S1131A2015E00623F1E70523EFE70423EDE703239D
S1131A30EBE70223E9E7072143EA0173436040230C
S1131A4082F80531634B03EB45150020A872F0BC06
S1131A5070470621F0E70521EEE70421ECE70321B6
S1131A60EAE70221E8E76FF01100F0E76FF01300F6
S1131A70EDE76FF01300EAE76FF01300E7E74FF0CC
S1131A80824393F80041E4B200252B4603EB830222
S1131A90504901EB820292F8E620FF2AE3D06A0162
S1131AA0881803EB830701EB870191F8E71001F035
S1131AB0070101293FF44DAF002EFFF679AF14F072
S1131AC0070FD9D1434E9F00F91806EB810191F815
S1131AD0E71001F007010C4302F1824282F8004151
S1131AE03B4406EB8306B6F8E4103B4B03EA813330
S1131AF0B1F5007F9FD8B1F5807FAAD88029AAD8F4
S1131B004029AAD82029AAD81029AAD8082994BFDC
S1131B100021012190E744F0E0444460C1F30D0149
S1131B20072641EA06714161402682F80561802159
S1131B3082F80411274F07EB45150020A872A876F8
S1131B409C00E11807EB810191F8E62002F00F02F6
S1131B50D1F8E0505201B918BD50234407EB830378
S1131B60B3F8E4404B6864F39B334B604B6860F319
S1131B700D034B6002F18243B02183F8041183F812
S1131B8005611A46102382F8093160E744F0A04445
S1131B904460C1F30D010526C3E744F0405444609A
S1131BA0C1F30D010326BCE744F0C0444460C1F313
S1131BB00D010626B5E744F080444460C1F30D01ED
S1131BC00426AEE744F000544460C1F30D0102263C
S1131BD0A7E700BF8002002000C0FF0F70B443B22B
S1131BE0DC0F10F00F0008D0002BB4BF431D0346D8
S1131BF0052803D96FF0110018E00023012917D03C
S1131C0000293AD003EB8303454A02EB830393F89C
S1131C10E63003F00F035B0103F1824393F80621DE
S1131C201023A3401A4214BF0120002070BC704747
S1131C301025A540EDB23A499E00F21801EB82024C
S1131C4092F8E62002F00F02500100F1824080F881
S1131C500551202000FA04F4E4B2520102F1824258
S1131C6082F80941334401EB830393F8E72042F0FF
S1131C70080283F8E7200020D8E703EB8302284911
S1131C8001EB820292F8E62002F00F02510101F109
S1131C90824191F806511020A04005423CD0C0B2C8
S1131CA081F804012020A040C5B281F8085191F8C0
S1131CB00721024207D081F80751012202FA04F4F5
S1131CC0E4B281F8044103EB8302154800EB82027D
S1131CD092F8E72002F00702012A0CD003EB8303F9
S1131CE00F4A02EB830393F8E7206FF3C30283F8F0
S1131CF0E72000209AE791F8062112F0300F0DD169
S1131D0003EB830200EB820393F8E7206FF3C30233
S1131D1083F8E720002089E7002087E7002085E793
S1131D208002002030B400F00F046301144AD0187C
S1131D30D5584068C0F30D00052C17D8C9B103F17C
S1131D40824393F80021D2B2112A15D193F80721C6
S1131D5012F0100F02D1002030BC70472C686A6862
S1131D600C604A60102283F80721F5E76FF0110038
S1131D70F2E76FF01100EFE76FF01200ECE700BF3D
S1131D80800200202DE9F04F83B0037A5EB213F095
S1131D900F0300F0C280002EB4BF5A1D1A46144629
S1131DA0694901F1C007551C05EB850507EB85075B
S1131DB002EB820201EB8202B2F8E42040F2FF312E
S1131DC08A4225D0551EADB241680D40052B00F264
S1131DD092800368B3F1005F1CD303EB010CDFF8BE
S1131DE080E1F44516D813F0030F13D1002E2ADB3B
S1131DF08A4200F29C804DB304EB8403524A02EB06
S1131E008303D3F8E030002B7BD04FF000080CE0C4
S1131E101546D9E704EB84034B4A02EB8303D3F85A
S1131E20E030002B6AD04FF0010804EB8403464AEB
S1131E3002EB830393F8E73013F0080F09D0022074
S1131E4003B0BDE8F08F4FF00008EEE74FF0000854
S1131E50EBE7824601A83D4B984704EB84033A4ADA
S1131E6002EB830393F8E73013F0400F3CD104EB0B
S1131E708409354B03EB890999F8E73043F04003B3
S1131E8089F8E73001A8324B9847DAF80030C9F8EE
S1131E90D430DAF80430C9F8D8300023C9F8DC307B
S1131EA0F20F99F8E73062F3C71368F3451389F822
S1131EB0E7309AF80930E3B1B5FA85F56D0904EB1A
S1131EC08404214B03EB840494F8E73065F3041392
S1131ED084F8E730002E4FF000013846B4BF1D4BA4
S1131EE01D4B98470020ABE701A8194B98470120E8
S1131EF0A6E70025E3E76FF01100A1E76FF01200F9
S1131F009EE76FF011009BE76FF0120098E74168BD
S1131F10C1F30905114F00245BE70B4AB2F8E42032
S1131F2040F2FF318A42F2D00C4F00244AE704EB1E
S1131F308403054A02EB8303D3F8E030002BE3D09B
S1131F404FF0010871E700BF80020020F504000093
S1131F5003050000B50F00003911000054030020F0
S1131F60FF1F0420074B002908BF1946012804D08D
S1131F7010B9054BC3F8C0107047034BC3F8C41025
S1131F80704700BF250D0000800200200A4B002985
S1131F9008BF1946034638B1012809D0022804BFF6
S1131FA0064BC3F8D0107047044BC3F8C8107047F1
S1131FB0024BC3F8CC107047250D000080020020AE
S1131FC008B5014B984708BD2913000008B5014B1B
S1131FD0984708BD2913000008B5014B984708BD70
S1131FE02913000008B5014B984708BD29130000C8
S1131FF0F0B583B00B78C3F34114012C5ED18C8807
S1132000354D2D78A54203D0334D6D78A54258D176
S113201016460C46054613F0800F0CD1CF882F4B83
S1132020984701466378202B13D0222B32D06FF0CF
S11320300C0003B0F0BD012A46D04B78212B45D1CA
S1132040CB88072B45D1002307222549254CA047DF
S1132050EFE7072F2BD1BEB1006800908A888B79F7
S1132060ADF804208DF806301B4B1B6913B168468C
S11320709847F8B1184B02AA12E9030098609981B5
S1132080090C99730020D4E7002307222846154C35
S1132090A047CEE700231A4619461846114DA84713
S11320A00D4B5B6943B1608898470020C1E74FF04E
S11320B0FF30BEE70020BCE70020BAE76FF009005C
S11320C0B7E76FF00900B4E70020B2E76FF00C0047
S11320D0AFE74FF0FF30ACE7F8050020D92E000041
S11320E000060020B52900002DE9F04F83B0164604
S11320F0012966D041B102290CBF6FF01A006FF0BC
S11321000C0003B0BDE8F08FD0F808A010680028D8
S113211000F085800AF1FF3B0AF101030093464F6A
S1132120DFF82491DFF824818278437903F0F70300
S1132130022B02D06FF00900E3E70BF1010B9BF8CF
S113214000309A426ED0FF2B6FD18BF8002005220D
S113215071683A4B98470446F8B1CDF804B0A578B5
S11321606379227902EB032292B2E1782846B847D8
S113217000285DD115F0800F14BF8BF802508AF847
S113218004502846C8473460207871682044C0470A
S113219004460028E3D1DDF804B03368187804223B
S11321A071681844254B9847009B9B4504D0002830
S11321B0BAD16FF00900A4E70122214B5A71002023
S11321C09FE7846842B113685B7903F0F703022B3D
S11321D002D06FF0090094E72378FF2B08D0FF2387
S11321E02370A078984203D0164B9847FF23A3701E
S11321F06378FF2B08D0FF236370E078984203D004
S1132200104B9847FF23E3702079FF2803D00D4B30
S11322109847FF2323710020094B587171E76FF031
S113222009006EE76FF011006BE76FF01B0068E7C1
S11322306FF0130065E700BFFD070000F92E0000F2
S1132240F80500206508000091080000332F000005
S113225008B50A4B984701280CD80948094BC361B3
S113226000621830084B984708490120084B9847EA
S1132270002008BD6FF0100008BD00BFE52E00006F
S1132280F8050020E9200000852E00000000002051
S1132290F12D0000074B5B7943B110B50A460146A6
S11322A0002304480079044CA04710BD6FF01000CF
S11322B0704700BFF8050020B5290000074B5B7983
S11322C043B110B50A46014601230448C078044CC2
S11322D0A04710BD6FF01000704700BFF805002044
S11322E0B529000008B503281BD8DFE800F0020A6E
S11322F012160A4602210C4B18790C4B9847002001
S113230008BD0A460221084BD878084B984700209C
S113231008BD054B1961002008BD034B596100201D
S113232008BD6FF00C0008BDF8050020650A000028
S113233010B50B78812B10D0C3F34113012B3FD17F
S11323408A88224B1B7B9A423DD14B78032B28D0A1
S11323500B2B2CD06FF00C0010BD4B78062B02D049
S11323606FF0090010BD8A88184B1B7B9A4202D07B
S11323706FF0090010BD4B881B0A212B04D0222BBF
S113238009D06FF00C0010BD104B196800230A78B7
S11323900F4CA04710BD00233B220E490C4CA04714
S11323A010BD002301220C49094CA04710BD4A88E6
S11323B0064BDA7300231A461946054CA04710BD94
S11323C06FF0090010BD6FF0090010BD1C0600205D
S11323D0B5290000403300002B0600202DE9F84FFA
S11323E01446012950D041B102290CBF6FF01A05DF
S11323F06FF00C052846BDE8F88FD0F80880136804
S1132400002B5ED09A785B79032B5DD198F80C3061
S11324109A425CD0FF2B5DD188F80C202368187891
S1132420212261681844314B9847314B18600226C9
S1132430DFF8C490DFF8C4A0DFF8C4B023681878CC
S113244061681844C8472060002846D087784379DB
S1132450027902EB032292B2C1783846D04705468E
S113246000283DD117F0800F14BF88F80D7088F84C
S11324700E703846D847013E16F0FF06DED11C4BDD
S11324800122DA731A74B5E785681AB113685B79A7
S1132490032B28D12B7BFF2B1CBFFF232B73687BC3
S11324A0FF2803D0134B9847FF236B73A87BFF28A7
S11324B003D0104B9847FF23AB7300250C4B1D74BE
S11324C098E76FF0090595E76FF0090592E76FF05B
S11324D011058FE76FF01B058CE76FF0090589E79D
S11324E06FF0130586E76FF0090583E7F92E000006
S11324F01C06002065080000332F0000FD070000C3
S11325009108000008B50A4B984701280CD80948DF
S1132510094B8361C0611430084B98470849012076
S1132520084B9847002008BD6FF0100008BD00BF9D
S1132530E52E00001C060020DD230000852E00008F
S113254008000020F12D000038B5264B1B7C002B21
S113255045D0244A00235360936029B303464D1E9B
S1132560EDB2013505EB45050544002202E00333D5
S1132570AB4205D05C78002CF9D00132D2B2F6E738
S11325808A1AD2B2062A09D803464A1ED2B20132A6
S113259002EB420210440224124D15E0114B4FF09D
S11325A0FF32C3F806205A810E4800230822011D79
S11325B0407B0D4CA04738BD621C19782C44217116
S11325C0D4B203338342EFD09A78012AF9D15A78EE
S11325D0002AF1D02A7919780A432A71F1E76FF0B9
S11325E0100038BD1C060020B529000010B50B787A
S11325F0812B10D0C3F34113012B3FD18A88224B86
S11326001B7A9A423DD14B78032B28D00B2B2CD02C
S11326106FF00C0010BD4B78062B02D06FF0090050
S113262010BD8A88184B1B7A9A4202D06FF00900B9
S113263010BD4B881B0A212B04D0222B09D06FF02C
S11326400C0010BD104B196800230A780F4CA047EA
S113265010BD002334220E490C4CA04710BD0023AA
S113266001220C49094CA04710BD4A88064B9A72B6
S113267000231A461946054CA04710BD6FF0090007
S113268010BD6FF0090010BD3C060020B529000004
S11326907C3300004606002070B51446012940D062
S11326A039B102290CBF6FF01A046FF00C042046F4
S11326B070BD85681368002B49D09A785B79032B29
S11326C048D12B7A9A4248D0FF2B49D12A722368E9
S11326D01878212261681844294B9847294B1860BF
S11326E02368187861681844274B984720600028AD
S11326F039D086784379027902EB032292B2C17809
S11327003046224B9847044680BB16F0800F30D0E9
S11327106E7230461E4B98471A4B01229A72DA7237
S1132720C5E785681AB113685B79032B24D12B7A2A
S1132730FF2B1CBFFF232B72687AFF2803D0154B95
S11327409847FF236B7200240E4BDC72AFE76FF0E7
S11327500904ACE76FF00904A9E76FF01104A6E7D8
S11327606FF01B04A3E76FF00904A0E76FF01304F4
S11327709DE74FF0FF349AE76FF0090497E700BF35
S1132780F92E00003C060020332F0000FD07000056
S1132790910800006508000008B50A4B9847012815
S11327A00CD80948094B036140610C30084B984729
S11327B008490120084B9847002008BD6FF010001D
S11327C008BD00BFE52E00003C060020992600004D
S11327D0852E000010000020F12D000000220D4B7A
S11327E05A6001290ED002290ED003290FD1094BBA
S11327F0D87110B50748002304228118407A064C8A
S1132800A04710BD5871F4E7024B9871F1E76FF0DF
S11328100C0070473C060020B529000070B5074B3A
S11328201C694CB1002601256368324629462046BE
S113283098472468002CF7D170BD00BF54060020CF
S113284070B506460D46074BDC681CB970BD24689C
S1132850002CFBD06368002BF9D0294630469847FA
S1132860F5E700BF54060020F8B507460E461546A6
S11328700C4B9C681CB90020F8BD24686CB16368DB
S1132880002BFAD02A4631463846984738B110F121
S11328900A0FF2D04FF0FF30F8BD0020F8BD012040
S11328A0F8BD00BF5406002010B5064B5C681CB987
S11328B010BD2468002CFBD06368002BF9D0984726
S11328C0F7E700BF5406002010B5144619B10129DA
S11328D026D0002010BD1378002BFAD15378052B95
S11328E00FD0092BF5D15288104BDA766388002B70
S11328F014BF042103210D4B997601200C4B9847FA
S1132900E7E75088C0B20B4B98476388002B14BF8D
S113291003210221054B99760120054B9847D8E7FE
S1132920012221460020044B9847D2E75406002098
S113293041280000F10700006928000070B50D4B24
S113294098470D4D0226AE760024EC766C7720462F
S11329500A4B9847287F0A4B98470A4A2146204643
S1132960094DA847094A31462046A8472046084B46
S1132970984770BD1D28000054060020650800001B
S113298051080000D5290000650A0000C92800008C
S11329909108000008B510B1012804D008BD00203A
S11329A0024B984708BD024B984708BD41280000D8
S11329B03D29000000B585B0019102928DF80C000C
S11329C08DF80D3001A8024B984705B05DF804FB63
S11329D0DD0800002DE9F04383B005460C460022D3
S11329E09B4B9847B0F1FF3F0BD0012800F0E381E7
S11329F0237813F0E00208D0802A00F0F48000204D
S1132A0000E0002003B0BDE8F0836278013A0A2AAE
S1132A1000F2D381DFE812F06000D1017600D10129
S1132A200B00D101D101D1011500D1018C0001238A
S1132A30002211462846874CA047B0FA80F040098E
S1132A40E0E76288D2B2CAB1834B1B685968186840
S1132A50824B9847002800F0BE81C278817801EB50
S1132A60022110FA81F1019104227D4B98470090D4
S1132A7030B1FF24DFF8E081794F18E0794B9847B3
S1132A800123002211462846724CA047B0FA80F078
S1132A904009B7E74C4600E04C46009803781844D8
S1132AA0009004220199B84700900028E8D090F8DB
S1132AB00290A145F1D0D8F81040002CEAD00026AD
S1132AC063686A463146204698470028E4D0246863
S1132AD0002CF5D14C46E0E703F01F03022B40F035
S1132AE06E81E3880BB100208CE7A0880021C0B27E
S1132AF05D4B98470123002211462846554CA047B8
S1132B0001207FE703F01F03022B40F05A81E38882
S1132B100BB1002076E7A0880121C0B2524B984740
S1132B2001230022114628464A4CA047012069E7A8
S1132B306688A488484A1368D27E59681868474B47
S1132B409847002845D00090C278817801EB022193
S1132B5010FA81F101910422414B98470346002861
S1132B6039D004273E4D08E00098037818440090BB
S1132B703A460199A847034678B39A78A242F3D11A
S1132B80DA78B242F0D10093334B1D693DB301278B
S1132B906B686A4639462846984720B12D68002D4F
S1132BA0F6D100202EE76B686A4600212846984734
S1132BB0B8B936B1284A012303FA04F4537F2343F6
S1132BC0537700231A4619461846224CA047012081
S1132BD018E7002016E7002014E7002012E7002081
S1132BE010E700200EE762780A2A00F2EC80DFE8A2
S1132BF012F08E00EA00EA00EA00EA00EA000B00A4
S1132C00EA008200EA00B2006288130A022B2DD087
S1132C10032B50D0012B01D00020F3E6E288122AC6
S1132C2028BF122214460C4B1B68012259681868ED
S1132C300B4B98470146002800F0C780002322462A
S1132C402846044CA047B0FA80F04009DAE600BFF9
S1132C5069280000B529000054060020792F0000DF
S1132C60F92E00001D280000FD090000E4885B4BDC
S1132C701E7F1B680132D2B259681868584B9847B6
S1132C800146002800F0A380C378827802EB032277
S1132C9092B294420DD9013E26420CBF0123002377
S1132CA01446224628464F4CA047B0FA80F040090B
S1132CB0A8E60023F5E7E488484B1E7F1B68D2B2E0
S1132CC059681868484B98470146002800F08180ED
S1132CD0027894420DD9013E26420CBF0123002301
S1132CE01446224628463F4CA047B0FA80F04009DB
S1132CF088E60023F5E739494B69CA7E1A70002338
S1132D00012249692846374CA04701207AE603F09E
S1132D101F03012B03D9022B10D0002072E60023DD
S1132D2000932E494B69BDF800201A80002302222B
S1132D30496928462B4CA047012063E6A08802215C
S1132D40C0B22A4B9847002803DB00F00100009032
S1132D50E7E7002056E6214B5B7FA288134113F07E
S1132D60010F12D01D4B1D690020002D3FF44AAE07
S1132D7002266B68224631462846984700280FDA17
S1132D802D68002DF5D100203CE614494B69002044
S1132D901870034601224969124CA047012031E60C
S1132DA00E494B69187000230122496918460D4CDD
S1132DB0A047012026E6012024E6002022E6002088
S1132DC020E600201EE600201CE600201AE6002073
S1132DD018E6002016E6002014E600BF5406002082
S1132DE0792F0000B5290000E12F0000FD09000043
S1132DF008B5012807D010B1022808D008BD06483C
S1132E00064B984708BD0648044B984708BD05483B
S1132E10024B984708BD00BF58060020D90A00009D
S1132E205C0600206006002038B5054640F25532A5
S1132E300C49003018BF01200B4B98470B4B9847A7
S1132E4000280EDB0A4C202200212046094B98471B
S1132E50656109490020094CA04709490120A047A0
S1132E60002038BDB0330000B10A0000650700003F
S1132E7054060020C7320000A9280000CD07000036
S1132E809529000008B501460148024B984708BD42
S1132E9064060020D90A000008B50A4B9B7E5BB982
S1132EA068B1084B18600268D2791A7701229A76C1
S1132EB0054B9847002008BD6FF0030008BD6FF074
S1132EC0080008BD54060020D907000008B5014BCE
S1132ED0984708BDE5070000014B5869704700BFDB
S1132EE054060020034B987E00F01003002B18BFFB
S1132EF01020704754060020884214D20378012B16
S1132F0013D910B4447894420AD01844814206D9A3
S1132F100378012B0BD944789442F6D100E00020C9
S1132F205DF8044B70470020704700207047002074
S1132F30F6E7884216D20378012B15D94278042A81
S1132F4014D0052A0BD01844814209D90378012BE7
S1132F500ED94278042A0DD0052AF4D10BE070472B
S1132F600020704700207047002070470020704701
S1132F70002070470020704738B50C4615460222E1
S1132F80164B98470346E8B184421DD90278012ABA
S1132F901CD94278022A1BD14279AA4212D0D9788C
S1132FA09A7802EB012213FA82F39C4209D91A7827
S1132FB0012A0FD95A78022A0ED15A79AA42EED19F
S1132FC000E00023184638BD0023FBE70023F9E79F
S1132FD00023F7E70023F5E70023F3E7F92E0000C9
S1132FE0884217D22DE9F0410D46164600244FF0D1
S1132FF003080C4F42462946B847034670B100788F
S113300001280AD9A64209D0184401348542F1D8CE
S1133010002303E000231846704700231846BDE848
S1133020F08100BFF92E000008B5064B984706480A
S1133030064B9847032220216020054B9847054BF7
S11330409847FEE7D102000074060020D931000041
S1133050F53100004132000010B582B0ADF8040033
S113306010F0010F02D1002002B010BD064900206B
S1133070064CA04706490120A0474FF40071054BB8
S11330801868054B9847EEE7B9300000E5220000C8
S11330909D300000B40600209522000008B54FF4CE
S11330A00071034B1868034B9847002008BD00BF0C
S11330B0B40600209522000008B51146024B18689A
S11330C0024B9847002008BDB4060020BD22000032
S11330D03A4B1B790A2B03D80133384A13717047D2
S11330E070B584B0354B00221A711D7A01A8344B97
S11330F098476B093349DB01CA18C958136A146924
S11331005C400C405C4001A82F4B984705F01F051C
S1133110012303FA05F5254240D0284B1D7B02A864
S1133120274B98476B092749DB01CA18C958136A0A
S113313014695C400C405C4002A8234B984705F09E
S11331401F05012303FA05F525422DD01B4D2E7CC6
S113315003A81B4B984773091A49DB01CA18C958BD
S1133160136A14695C400C405C4003A8164B9847F2
S113317006F01F060123B3401C400CBF01230023AB
S11331802A7D9A4208D02B759CB100220F4B9A706D
S113319001210E480E4B984704B070BD19466FF0DC
S11331A004000C4B9847B8E719460520094B98478B
S11331B0CCE70122054B9A70EAE700BFB406002071
S11331C0F504000000800041030500001800002001
S11331D049250000DD27000008B5034B18600349AA
S11331E00320034B984708BDB40600205930000063
S11331F0E522000008B5044B98601961DA600349C0
S11332000020034B984708BDB40600201C00002092
S1133210F12D000008B50548054B9847054B984724
S1133220054B9847054B984708BD00BFCC060020C6
S1133230292E0000512200009927000005250000D6
S113324008B50348034B9847034B984708BD00BF94
S113325024000020992E0000CD2E000008B5014B5B
S1133260984708BD1532000070B50D4E0D4CA41BD7
S1133270A4100025A54209D10B4E0C4C00F0A4F873
S1133280A41BA4100025A54205D170BD56F8253015
S113329098470135EEE756F8253098470135F2E7AF
S11332A0D4330000D4330000D4330000D8330000FA
S11332B010B5431E0A44914200D110BD11F8014BD0
S11332C003F8014FF7E702440346934200D17047E5
S11332D003F8011BF9E700002E2E2F68616C2F758F
S11332E074696C732F7372632F7574696C735F6C7C
S11332F06973742E63000000B8050020000000000C
S11333004000000000000000000000000000000079
S1133310B005002000000000080000007005002037
S11333200000000040000000000000000000000059
S11333300000000000000000000000000000000089
S113334005010906A101050719E029E71500250172
S1133350750195088102810119002965150025650B
S11333607508950681000508190129051500250130
S113337075019505910295039101C00005010902AB
S1133380A1010901A100050919012903150025015D
S113339075019503810275059501810105010930C7
S11333A0093109381581257F750895038106C0C048
S11333B02E2E2F7573622F6465766963652F75737E
S11333C06264632E63000000F8B500BFF8BC08BC5B
S11333D09E46704789020000F8B500BFF8BC08BCDF
S10B33E09E46704765020000DF
S11333E800000000F11F000000000000312300006D
S11333F800000000ED250000390000000000000076
S1133408D13000002C000020C2000020120100026C
S1133418EF020140EB03212400010000000109022E
S113342884000401008032080B0002020201000932
S11334380400000102020100052400011005240112
S11334480100042402020524060001070582034042
S1133458000A09040100020A0000000705010240ED
S1133468000007058102400000090402000103016D
S113347802000921100121012234000705830308F1
S1133488000A0904030002030101000921100121B3
S113349801223B000705840308000A070502030804
S10734A8000A000012
S9030000FC
