S00F000047345F746573742E737265637B
S113000010B5054C237833B9044B13B10448AFF34E
S113001000800123237010BD0000002000000000B8
S11300208C0000000C4B43B10C480D4910B5AFF3E4
S113003000800C48036823B910BD0A48036833B92B
S11300407047094B002BF7D0BDE810401847064B0A
S1130050002BF5D0184700BF000000008C00000002
S1130060040000208C00000000000000F8B500BF70
S1130070F8BC08BC9E46704725000000F8B500BFD8
S10F0080F8BC08BC9E467047010000005C
S9030000FC
